:100000001BC031C030C02FC02EC06DC2CDC12BC0AF
:100010002AC029C028C03FC085C292C2A3C290C2D4
:10002000A1C28EC29FC28CC29DC28AC29BC288C21C
:1000300099C29AC29FC2A6C211241FBECFEDCDBFE6
:1000400014BE0FB6F894A89581B5886181BD11BC26
:100050000FBE20E0A0E6B0E001C01D92A538B207B7
:10006000E1F734D1BEC2CCCF10926F0010926E0077
:100070001092730010927200109271001092700032
:100080003D9A86B18F6C86B90895E82FF0E0E0596B
:10009000FF4F808108951F920F920FB60F92112487
:1000A0002F933F934F935F938F939F93AF93BF9300
:1000B000CF93DF93EF93FF9380916E008F5F853036
:1000C00018F480936E0037C010926E0035B1209105
:1000D0006F00422F50E0E42FF52FEE0FFF1FE6597F
:1000E000FF4F80819181830F911D91838083A42F85
:1000F000B52FAE58BF4F3C913F5F3C93383068F00E
:10010000C42FD52FC059DF4F33E0969587953A9588
:10011000E1F788831C921182108281E0820F823085
:1001200018F480936F0002C010926F0080916F00EE
:100130008170806287B9369AFF91EF91DF91CF91FC
:10014000BF91AF919F918F915F914F913F912F916F
:100150000F900FBE0F901F901895282F862F90E0BC
:1001600066E070E02DD28F599F4FE82FF92F208342
:100170000895809162008130A9F038F0823009F44E
:100180004EC0833009F45BC0089560E777E182E0F8
:10019000D5D068EE73E081E0D1D064E670E080E015
:1001A000CDD077C080E0FAD0811176C082E0F6D061
:1001B000811109C06ADF883010F483E06BC060E70A
:1001C00077E182E0BBC081E0E9D0811109C068EE2F
:1001D00073E081E0B3D082E080936200C49A089516
:1001E000809160008E3108F057C08F5F809360006F
:1001F00062E170E080E0A2D081E047DF843C48F417
:1002000098E5980F9C3138F08C588C3130F08BE0A9
:1002100005C088E003C089E001C08AE035C181E003
:10022000BDD0811139C068EE73E081E087D01092B3
:10023000600081E080936200C498DA98089580E0BD
:1002400024DF8830C8F4DB9A9FE088E10FB6F89489
:10025000A89581BD0FBE91BD85B7877E806185BFA2
:10026000F89485B7806285BF7894C5988895C59ABB
:1002700085B78F7D85BFE4DEDA9ADB98C59A60E7A3
:1002800077E182E05BD068EE73E081E057D01092B6
:10029000600081E0809362000895E1E6F0E086E08E
:1002A000AE2FBF2F1D928A95E9F789EB90E09383DB
:1002B00082838DEA90E0958384830895E0916300C2
:1002C000F0916400309709F0099408958CE08ABB9E
:1002D00080EF8BBB88E787BB87E288BBC59A89B56F
:1002E000826089BD09B400FEFDCFBEDEB7D005D067
:1002F000D4DF7894E3DFCED0FDCF83E0E7E7F0E012
:10030000AE2FBF2F982F1D929A95E9F7E4E7F0E002
:10031000AE2FBF2F1D928A95E9F7109269001092B7
:1003200068001092670012BE83B7886083BF83B7EE
:10033000836083BF89B7826089BF0895CF92DF92BF
:10034000EF92FF922091680030916900C62ED72E5F
:10035000E12CF12CC20ED31EE11CF11C9FEFC9163B
:10036000D906E104F10410F02F5F3F4F620F731FB5
:10037000F89490E0E82FF92FEE0FFF1FE958FF4F98
:1003800071836083E82FF92FEC58FF4F21E0208321
:100390007894FF90EF90DF90CF900895E82FF0E0F1
:1003A000EC58FF4F808108951F920F920FB60F9265
:1003B00011242F933F934F935F938F939F93AF930A
:1003C000BF93EF93FF93809168009091690001962D
:1003D00090936900809368001092670020E02330BA
:1003E000D9F0822F90E0A82FB92FAC58BF4F3C9185
:1003F000313081F44091680050916900880F991F55
:10040000E82FF92FE958FF4F8081918184179507D4
:1004100009F41C922F5FE3CF20936700FF91EF91C7
:10042000BF91AF919F918F915F914F913F912F918C
:100430000F900FBE0F901F90189510928100C398D7
:10044000089580918100813021F410928100C39839
:10045000089581E080938100C39A0895EEDF1092A1
:100460007D00109284001092820010927E00109203
:100470007F0010928300109280008FB580688FBD3E
:1004800089B7846089BF08958093830081E0809359
:100490008000089580917D00811124C0909180009A
:1004A000913001F5109280008091830080937F004D
:1004B00090937D0095E09093840090E290937E006D
:1004C000082E82958025082E8695869580258F5F3B
:1004D00086958170809382001EBC80EF8BBD8FB5A6
:1004E00085608FBD08951F920F920FB60F92112451
:1004F0002F933F934F935F936F937F938F939F932C
:10050000AF93BF93EF93FF93E0917D008E2F90E028
:10051000E82FF92F3197E031F10508F040C0E45F92
:10052000FF4F099481E080938100C39A80918400F9
:10053000815080938400811132C07FDF82E00FC040
:1005400090917F0080917E00892309F07ADF80916D
:100550007E00869580937E0080917D008F5F8093E2
:100560007D001DC06EDFF8CF80918200811169DFB0
:100570008FE0F5CF66DF80E180937D0086E0809399
:1005800084000DC05ADF80918400815080938400E4
:10059000811105C08FB58A7F8FBD10927D00FF91BC
:1005A000EF91BF91AF919F918F917F916F915F91EB
:1005B0004F913F912F910F900FBE0F901F90189564
:1005C0000024552704C0080E591F880F991F009753
:1005D00029F076956795B8F37105B9F7802D952FB9
:0605E0000895F894FFCF1E
:00000001FF
