:100000001BC028C027C026C025C0D3C133C122C011
:1000100021C020C01FC01EC0EBC1F8C109C2F6C17B
:1000200007C2F4C105C2F2C103C2F0C101C2EEC1F0
:10003000FFC100C205C20CC211241FBECFEDCDBF4F
:1000400020E0A0E6B0E001C01D92AD37B207E1F7B5
:10005000A4D02DC2D5CF282F862F90E066E070E087
:1000600015D28D599F4FE82FF92F20830895809145
:1000700064008130A9F038F0823009F441C0833047
:1000800009F465C0089589B3807F8093600068EEAD
:1000900073E081E0B9D068EC70E080E0B5D053C087
:1000A000C49A80E0E1D0811121C080916000882352
:1000B000E9F010926100809162008431B8F48F5FA2
:1000C0008093620062E170E080E09ED080916000E9
:1000D00087FD06C086FD06C085FD06C08FE205C00F
:1000E0008CE203C08DE201C08EE234D181E0BCD04D
:1000F000811139C064EF71E081E086D082E024C0D4
:10010000C49889B3807F80936000811112C082E01F
:10011000ABD0811128C080916100811108C064E6D4
:1001200070E082E071D081E080936100089583E007
:100130000BC081E099D0811116C068EE73E081E0B8
:1001400063D01092620081E0809364000895F89477
:10015000C498C59885B7806285BF85B7806185BF23
:10016000C498C598FDCF0895E3E6F0E086E0AE2F91
:10017000BF2F1D928A95E9F787E390E093838283EE
:100180008BE290E0958384830895E0916500F0917F
:100190006600309709F0099408958CE08ABB83E0EB
:1001A0008BBB88E787BB87E288BBC59A89B582602D
:1001B00089BD09B400FEFDCFB7D005D0D5DF789456
:1001C000E4DFCED0FDCF83E0EFE6F0E0AE2FBF2F2F
:1001D000982F1D929A95E9F7ECE6F0E0AE2FBF2F2D
:1001E0001D928A95E9F710926B0010926A001092A6
:1001F000690012BE83B7886083BF83B7836083BF03
:1002000089B7826089BF0895CF92DF92EF92FF9203
:1002100020916A0030916B00C62ED72EE12CF12C74
:10022000C20ED31EE11CF11C9FEFC916D906E104D2
:10023000F10410F02F5F3F4F620F731FF89490E0AE
:10024000E82FF92FEE0FFF1FE159FF4F71836083F5
:10025000E82FF92FE459FF4F21E020837894FF9095
:10026000EF90DF90CF900895E82FF0E0E459FF4F32
:10027000808108951F920F920FB60F9211242F9331
:100280003F934F935F938F939F93AF93BF93EF935E
:10029000FF9380916A0090916B00019690936B00A0
:1002A00080936A001092690020E02330D9F0822FF9
:1002B00090E0A82FB92FA459BF4F3C91313081F461
:1002C00040916A0050916B00880F991FE82FF92F19
:1002D000E159FF4F808191818417950709F41C92A1
:1002E0002F5FE3CF20936900FF91EF91BF91AF9112
:1002F0009F918F915F914F913F912F910F900FBEE2
:100300000F901F90189510927900C39808958091CE
:100310007900813021F410927900C398089581E02A
:1003200080937900C39A0895EEDF109275001092C1
:100330007C0010927A001092760010927700109252
:100340007B00109278008FB580688FBD89B784607C
:1003500089BF089580937B0081E0809378000895A1
:1003600080917500811124C090917800913001F541
:100370001092780080917B008093770090937500B5
:1003800095E090937C0090E290937600082E829501
:100390008025082E8695869580258F5F86958170AD
:1003A00080937A001EBC80EF8BBD8FB585608FBDBA
:1003B00008951F920F920FB60F9211242F933F931F
:1003C0004F935F936F937F938F939F93AF93BF935D
:1003D000EF93FF93E09175008E2F90E0E82FF92FB7
:1003E0003197E031F10508F040C0E45FFF4F099418
:1003F00081E080937900C39A80917C008150809342
:100400007C00811132C07FDF82E00FC090917700C5
:1004100080917600892309F07ADF809176008695B5
:1004200080937600809175008F5F809375001DC06A
:100430006EDFF8CF80917A00811169DF8FE0F5CF10
:1004400066DF80E18093750086E080937C000DC0BC
:100450005ADF80917C00815080937C00811105C01F
:100460008FB58A7F8FBD10927500FF91EF91BF917C
:10047000AF919F918F917F916F915F914F913F913C
:100480002F910F900FBE0F901F90189500245527A5
:1004900004C0080E591F880F991F009729F0769500
:1004A0006795B8F37105B9F7802D952F0895F894E5
:0204B000FFCF7C
:00000001FF
