:1000000025C03EC03DC03CC03BC0F5C149C138C061
:1000100037C036C035C034C00DC21FC236C21DC283
:1000200034C21BC232C219C230C217C22EC215C29C
:100030002CC213C22AC211C228C20FC226C20DC2CC
:1000400024C20BC222C209C220C226C211241FBE72
:10005000CFEDCDBF10E0A0E6B0E0EAEFF4E003C0E2
:10006000C89531960D92A837B107D1F720E0A8E7DF
:10007000B0E001C01D92A739B207E1F7A4D03BC29E
:10008000BFCF282F862F90E066E070E023D28558FE
:100090009F4FE82FF92F2083089580917C008130B5
:1000A000A9F038F0823009F441C0833009F465C00A
:1000B000089589B3807F8093780068EE73E081E0D3
:1000C000B9D068EC70E080E0B5D053C0C49A80E04D
:1000D000E1D0811121C0809178008823E9F010924D
:1000E000790080917A008431B8F48F5F80937A0030
:1000F00062E170E080E09ED08091780087FD06C0CC
:1001000086FD06C085FD06C08FE205C08CE203C0F7
:100110008DE201C08EE238D181E0BCD0811139C0BE
:1001200064EF71E081E086D082E024C0C49889B396
:10013000807F80937800811112C082E0ABD0811162
:1001400028C080917900811108C064E670E082E0E7
:1001500071D081E080937900089583E00BC081E045
:1001600099D0811116C068EE73E081E063D01092DF
:100170007A0081E080937C000895F894C498C59833
:1001800085B7806285BF85B7806185BFC498C598F3
:10019000FDCF0895EBE7F0E086E0AE2FBF2F1D9274
:1001A0008A95E9F78DE490E09383828381E490E07F
:1001B000958384830895E0917D00F0917E003097CF
:1001C00009F0099408958CE08ABB83E08BBB88E733
:1001D00087BB87E288BBC59A89B5826089BD09B4AF
:1001E00000FEFDCFB7D005D0D5DF7894E4DFDFD0B7
:1001F000FDCF83E0E7E8F0E0AE2FBF2F982F1D92F0
:100200009A95E9F7E4E8F0E0AE2FBF2F1D928A95AA
:10021000E9F710928300109282001092810012BEC2
:1002200083B7886083BF83B7836083BF89B78260E9
:1002300089BF0895CF92DF92EF92FF9220918200C2
:1002400030918300C62ED72EE12CF12CC20ED31E86
:10025000E11CF11C9FEFC916D906E104F10410F06E
:100260002F5F3F4F620F731FF89490E0E82FF92F34
:10027000EE0FFF1FE957FF4F71836083E82FF92FBF
:10028000EC57FF4F21E020837894FF90EF90DF90B0
:10029000CF900895E82FF0E0EC57FF4F808108954C
:1002A0001F920F920FB60F9211242F933F934F93EB
:1002B0005F938F939F93AF93BF93EF93FF9380913F
:1002C0008200909183000196909383008093820036
:1002D0001092810020E02330D9F0822F90E0A82FE7
:1002E000B92FAC57BF4F3C91313081F4409182001F
:1002F00050918300880F991FE82FF92FE957FF4F7E
:10030000808191818417950709F41C922F5FE3CFB8
:1003100020938100FF91EF91BF91AF919F918F91B9
:100320005F914F913F912F910F900FBE0F901F90B3
:10033000189510929300C39808958091930081308E
:1003400021F410929300C398089581E08093930064
:10035000C39A0895EEDF10928D00109296001092CD
:100360008F0010928E0010929100109290001092C7
:10037000950010929400109292008FB580688FBD06
:1003800089B7846089BF08958370E82FF0E0EE0F8D
:10039000FF1FE859FF4F80819181909395008093D2
:1003A0009400892B19F081E0809392000895809148
:1003B0008D0081111FC0809192008130D9F410927C
:1003C00092002091940030919500309391002093F9
:1003D000900080938D0085E08093960080E098E007
:1003E00090938F0080938E001EBC80EF8BBD8FB5E5
:1003F00085608FBD08951F920F920FB60F92112442
:100400002F933F934F935F936F937F938F939F931C
:10041000AF93BF93EF93FF93E0918D008E2F90E009
:10042000E82FF92F3197EA31F10508F042C0E45F77
:10043000FF4F099481E080939300C39A80919600C6
:10044000815080939600811134C073DF82E08093E5
:100450008D0086E0809396002CC020919000309112
:10046000910080918E0090918F0082239323892B9D
:1004700009F063DF80918E0090918F0096958795AB
:1004800090938F0080938E0001C057DF80918D0084
:100490008F5F80938D000DC04CDF8091960081505E
:1004A00080939600811105C08FB58A7F8FBD109211
:1004B0008D00FF91EF91BF91AF919F918F917F91AF
:1004C0006F915F914F913F912F910F900FBE0F90C1
:1004D0001F9018950024552704C0080E591F880F37
:1004E000991F009729F076956795B8F37105B9F7CC
:0A04F000802D952F0895F894FFCF9A
:1004FA000000000000000000100B7F0BA10BCE0BC8
:08050A00330C5C0C820CED0CBB
:00000001FF
