:100000000BC024C023C022C021C020C01FC01EC0FE
:10001000BEC11CC002C11AC011241FBECFEDCDBF8E
:1000200010E0A0E6B0E0E6EDF3E003C0C89531963D
:100030000D92A23AB107D1F720E0A2EAB0E001C0E8
:100040001D92AB3BB207E1F755D0C3C1D9CF282FE2
:10005000862F90E066E070E0ABD18D559F4FE82F82
:10006000F92F208308958091A400813059F018F071
:100070008230A9F00895B39B1DC01092A20080E0C9
:1000800081D115C0B39902C082E012C08091A30053
:100090009091A200891771F08093A20073C1B39B65
:1000A00009C01092A20080E06DD11092A30081E0FF
:1000B0008093A4000895E3EAF0E086E0AE2FBF2F1E
:1000C0001D928A95E9F783E390E09383828387E228
:1000D00090E0958384830895E091A700F091A800B3
:1000E00060E00994E091A500F091A600309709F036
:1000F000099408958CE08ABB83E78BBB82E487BBBD
:100100008DE388BB89B5826089BD09B400FEFDCF4F
:1001100080E031D108D0CFDF8CE690E00FD078942A
:1001200012D0E0DFFDCF1092BA001092B90083B771
:10013000846083BF88B1886488B908959093BA00B9
:100140008093B90008958091AF00882309F464C0BA
:10015000F8941092AF008091B0009091B10090930C
:10016000AE008093AD0078948091AD009091AE0088
:10017000E92FEF70F0E0282F392F46E036952795CC
:100180004A95E1F72370EE0FFF1FEE0FFF1FEE59A8
:10019000FF4FE20FF11D20812223C1F1382F3F7361
:1001A000321334C02091AB003091AC00821793071A
:1001B00031F58091AA008F5F8093AA00833060F1AF
:1001C0008091A900811105C0DA9A81E08093A9008D
:1001D00003C0DA981092A9001092AA00E091B90029
:1001E000F091BA003097C1F08091AD009091AE00CF
:1001F00026E0969587952A95E1F78F7309941092DA
:10020000AA009093AC008093AB0008951092AA00CE
:100210001092AC001092AB0008951F920F920FB68F
:100220000F9211242F933F934F935F938F939F933C
:1002300082B79091B700891718F42FEF280F01C0EB
:10024000282F291B2093B6008093B7008091B60019
:100250009AEC980F9F3080F481E08093B50080E0A5
:1002600098E090936100809360001092B400109227
:10027000B3001092B20056C098EE980F9F30B0F4C1
:100280001092B4008091B5008130B9F48091600083
:10029000909161002091B2003091B3003F70482FDF
:1002A000592F409550952423352324C08850803100
:1002B00060F58091B500813049F080E098E090933E
:1002C0006100809360001092B50046C08091B40038
:1002D0008F5F823028F11092B4008091600090917D
:1002E0006100282F392F3F704091B2005091B30028
:1002F000242B352B3093B3002093B200969587952D
:1003000090936100809360000DC01092B50080E072
:1003100098E090936100809360001092B4001CC03C
:100320008093B4008091600090916100892BC1F4AA
:100330001092B50080E098E0909361008093600097
:100340008091B2009091B3009F709093B100809320
:10035000B00081E08093AF001092B3001092B20021
:100360009F918F915F914F913F912F910F900FBE71
:100370000F901F901895880F880F88658DB910927F
:10038000B80008958FB980E48EB981E008951F9276
:100390000F920FB60F9211248F9380E48EB98FB114
:1003A0008093B8008F910F900FBE0F901F901895FB
:1003B0000024552704C0080E591F880F991F009765
:1003C00029F076956795B8F37105B9F7802D952FCB
:0603D0000895F894FFCF30
:1003D6000008000000000D223C131A352B041738C4
:1003E60026090000000000000000000000000000D8
:1003F6000000000000000000000000000000103FA8
:10040600210E331C022D0000000000000000000039
:020416000000E4
:00000001FF
