:100000000BC024C023C022C021C020C01FC01EC0FE
:10001000BDC11CC0EEC01AC011241FBECFEDCDBFA4
:1000200010E0A0E6B0E0E4EDF3E003C0C89531963F
:100030000D92AE36B107D1F720E0AEE6B0E001C0D8
:100040001D92A638B207E1F755D0C2C1D9CF282FEB
:10005000862F90E066E070E0AAD181599F4FE82F8B
:10006000F92F2083089580917000813059F018F0A5
:100070008230A9F00895B39B1DC010926E0080E0FD
:1000800080D115C0B39902C082E012C080916F0088
:1000900090916E00891771F080936E0072C1B39BCE
:1000A00009C010926E0080E06CD110926F0081E068
:1000B000809370000895EFE6F0E086E0AE2FBF2F4A
:1000C0001D928A95E9F783E390E09383828387E228
:1000D00090E0958384830895E0917300F09174001B
:1000E00060E00994E0917100F0917200309709F09E
:1000F000099408958CE08ABB83E78BBB82E487BBBD
:100100008DE388BB89B5826089BD09B400FEFDCF4F
:1001100080E030D108D0CFDF8CE690E00FD078942B
:1001200012D0E0DFFDCF109285001092840083B7DB
:10013000846083BF88B1886488B9089590938500EE
:10014000809384000895CF93DF9380917A00882371
:1001500009F44CC0DA9AF89410927A0080917B00EE
:1001600090917C0090937900809378007894DA984D
:100170004091780050917900E2E6F0E0AEE6B0E020
:1001800061917191642375238CE090E021E030E06F
:10019000C62FD72FC223D323CD2B09F09F5F220F69
:1001A000331F8150A9F790FF08C030937600209349
:1001B000750090937700DA9A18C0AE17BF0701F761
:1001C000309376002093750090937700E09184003F
:1001D000F0918500309749F0842F952F26E0969571
:1001E00087952A95E1F78F730995DA98DF91CF917A
:1001F00008951F920F920FB60F9211242F933F93E1
:100200004F935F938F939F9382B79091820089174A
:1002100018F42FEF280F01C0282F291B20938100ED
:1002200080938200809181009AEC980F9F3088F42F
:10023000DB9A81E08093800080E098E090936100F9
:100240008093600010927F0010927E0010927D00DB
:100250005CC098EE980F9F3028F580918000813027
:1002600049F580917F00811125C0DB9A8091600063
:100270009091610020917D0030917E003F70482F69
:10028000592F409550952423352330937E00209399
:100290007D00969587959093610080936000109201
:1002A0007F0033C08850803108F04BC080918000BF
:1002B000813049F080E098E0909361008093600085
:1002C0001092800048C0DB9A80917F008F5F82305F
:1002D00018F480937F0019C010927F008091600015
:1002E00090916100282F392F3F7040917D005091EF
:1002F0007E00242B352B30937E0020937D00969535
:1003000087959093610080936000DB9880916000F6
:1003100090916100892B19F51092800080E098E09F
:10032000909361008093600080917D0090917E00A9
:100330009F7090937C0080937B0081E080937A0093
:100340000AC01092800080E098E090936100809352
:10035000600010927F0010927E0010927D009F91AD
:100360008F915F914F913F912F910F900FBE0F9002
:100370001F901895880F880F88658DB9109283009B
:1003800008958FB980E48EB981E008951F920F928D
:100390000FB60F9211248F9380E48EB98FB18093A2
:1003A00083008F910F900FBE0F901F90189500241F
:1003B000552704C0080E591F880F991F009729F070
:1003C00076956795B8F37105B9F7802D952F089547
:0403D000F894FFCFCF
:0E03D4000008E00490064803440D420AC109E7
:00000001FF
