:1000000025C047C046C045C044C08FC2E3C141C0FF
:1000100040C03FC03EC055C0A7C2B9C2D0C2B7C2DF
:10002000CEC2B5C2CCC2B3C2CAC2B1C2C8C2AFC2CC
:10003000C6C2ADC2C4C2ABC2C2C2A9C2C0C2A7C2FC
:10004000BEC2A5C2BCC2A3C2BAC2C0C211241FBED6
:10005000CFEDCDBF14BE0FB6F894A89581B58861D9
:1000600081BD11BC0FBE10E0A0E6B0E0EEE2F6E00C
:1000700003C0C89531960D92A038B107D1F720E0A2
:10008000A0E8B0E001C01D92A73AB207E1F734D171
:10009000CCC2B6CF10928F0010928E0010929300B7
:1000A0001092920010929100109290003D9A86B1A9
:1000B0008F6C86B90895E82FF0E0E057FF4F8081FC
:1000C00008951F920F920FB60F9211242F933F9312
:1000D0004F935F938F939F93AF93BF93CF93DF9390
:1000E000EF93FF9380918E008F5F853018F480939B
:1000F0008E0037C010928E0035B120918F00422FB4
:1001000050E0E42FF52FEE0FFF1FE657FF4F8081E1
:100110009181830F911D91838083A42FB52FAE56BB
:10012000BF4F3C913F5F3C93383068F0C42FD52FD0
:10013000C057DF4F33E0969587953A95E1F788836E
:100140001C921182108281E0820F823018F4809319
:100150008F0002C010928F0080918F0081708062AA
:1001600087B9369AFF91EF91DF91CF91BF91AF910F
:100170009F918F915F914F913F912F910F900FBE63
:100180000F901F901895282F862F90E066E070E062
:100190003BD28F579F4FE82FF92F208308958091EE
:1001A00082008130A9F038F0823009F44EC08330EB
:1001B00009F45BC0089560E777E182E0D5D068EE8E
:1001C00073E081E0D1D064E670E080E0CDD077C00C
:1001D00080E0FAD0811176C082E0F6D0811109C0AA
:1001E0006ADF883010F483E06BC060E777E182E07B
:1001F000BBC081E0E9D0811109C068EE73E081E005
:10020000B3D082E080938200C49A089580918000E8
:100210008E3108F057C08F5F8093800062E170E0FC
:1002200080E0A2D081E047DF843C48F498E5980F55
:100230009C3138F08C588C3130F087E005C084E078
:1002400003C085E001C086E039C181E0BDD08111E5
:1002500039C068EE73E081E087D01092800081E0C1
:1002600080938200C498DA98089580E024DF883073
:10027000C8F4DB9A9FE088E10FB6F894A89581BD99
:100280000FBE91BD85B7877E806185BFF89485B725
:10029000806285BF7894C5988895C59A85B78F7D0B
:1002A00085BFD8DEDA9ADB98C59A60E777E182E00D
:1002B0005BD068EE73E081E057D01092800081E05F
:1002C000809382000895E1E8F0E086E0AE2FBF2F32
:1002D0001D928A95E9F78FEC90E09383828383ECFB
:1002E00090E0958384830895E0918300F0918400E9
:1002F000309709F0099408958CE08ABB80EF8BBB9E
:1003000088E787BB87E288BBC59A89B5826089BDCB
:1003100009B400FEFDCFBEDEB7D005D0D4DF78949F
:10032000E3DFDFD0FDCF83E0E7E9F0E0AE2FBF2FC2
:10033000982F1D929A95E9F7E4E9F0E0AE2FBF2FD0
:100340001D928A95E9F71092890010928800109208
:10035000870012BE83B7886083BF83B7836083BF83
:1003600089B7826089BF0895CF92DF92EF92FF92A2
:100370002091880030918900C62ED72EE12CF12CD7
:10038000C20ED31EE11CF11C9FEFC916D906E10471
:10039000F10410F02F5F3F4F620F731FF89490E04D
:1003A000E82FF92FEE0FFF1FE956FF4F718360838F
:1003B000E82FF92FEC56FF4F21E020837894FF902F
:1003C000EF90DF90CF900895E82FF0E0EC56FF4FCC
:1003D000808108951F920F920FB60F9211242F93D0
:1003E0003F934F935F938F939F93AF93BF93EF93FD
:1003F000FF938091880090918900019690938900E5
:10040000809388001092870020E02330D9F0822F5B
:1004100090E0A82FB92FAC56BF4F3C91313081F4FA
:100420004091880050918900880F991FE82FF92F7B
:10043000E956FF4F808191818417950709F41C923A
:100440002F5FE3CF20938700FF91EF91BF91AF9192
:100450009F918F915F914F913F912F910F900FBE80
:100460000F901F9018951092A300C3980895809143
:10047000A300813021F41092A300C398089581E075
:100480008093A300C39A0895EEDF10929D0010920E
:10049000A60010929F0010929E001092A100109250
:1004A000A0001092A5001092A4001092A2008FB597
:1004B00080688FBD89B7846089BF08958370E82FF5
:1004C000F0E0EE0FFF1FE859FF4F8081918190937C
:1004D000A5008093A400892B19F081E08093A200ED
:1004E000089580919D0081111FC08091A2008130EC
:1004F000D9F41092A2002091A4003091A50030936D
:10050000A1002093A00080939D0085E08093A60029
:1005100080E098E090939F0080939E001EBC80EF47
:100520008BBD8FB585608FBD08951F920F920FB65A
:100530000F9211242F933F934F935F936F937F9369
:100540008F939F93AF93BF93EF93FF93E0919D00A1
:100550008E2F90E0E82FF92F3197EA31F10508F05E
:1005600042C0E45FFF4F099481E08093A300C39AE7
:100570008091A60081508093A600811134C073DF62
:1005800082E080939D0086E08093A6002CC020919D
:10059000A0003091A10080919E0090919F00822345
:1005A0009323892B09F063DF80919E0090919F0037
:1005B0009695879590939F0080939E0001C057DF8A
:1005C00080919D008F5F80939D000DC04CDF8091D6
:1005D000A60081508093A600811105C08FB58A7F47
:1005E0008FBD10929D00FF91EF91BF91AF919F91B0
:1005F0008F917F916F915F914F913F912F910F90CC
:100600000FBE0F901F9018950024552704C0080EA8
:10061000591F880F991F009729F076956795B8F3B1
:0E0620007105B9F7802D952F0895F894FFCF3E
:10062E0000000000000000000D016201BC01D301BA
:10063E001A027502AB02C40217037803A603C9039C
:00000001FF
