:100000001BC028C027C026C025C0BFC11FC122C039
:1000100021C020C01FC01EC0D7C1E4C1F5C1E2C1CC
:10002000F3C1E0C1F1C1DEC1EFC1DCC1EDC1DAC194
:10003000EBC1ECC1F1C1F8C111241FBECFEDCDBFA2
:1000400020E0A0E6B0E001C01D92AC37B207E1F7B6
:1000500090D019C2D5CF282F862F90E066E070E0AF
:1000600001D28E599F4FE82FF92F20830895CF9307
:10007000C0916300C130A1F050F0C23009F44EC00D
:10008000C33009F05BC0F894C498C59856C068EEB8
:1000900073E081E0A5D064E670E080E0A1D049C0C3
:1000A000C49A80E0CDD0811149C089B3807F89F4A2
:1000B00082E0C6D0811142C080916000811107C0EA
:1000C00064E670E082E08CD0C093600037C083E0CB
:1000D00031C010926000809161008431A8F48F5F7C
:1000E0008093610062E170E080E07AD0CF9906C031
:1000F000CE9906C0CD9906C083E305C080E303C056
:1001000081E301C082E312D181E09AD0811116C04F
:1001100064EF71E081E064D082E00CC0C49881E0BB
:100120008FD081110BC068EE73E081E059D010923E
:10013000610081E08093630001C0FFCFCF910895FB
:10014000E2E6F0E086E0AE2FBF2F1D928A95E9F738
:1001500087E390E0938382838BE290E095838483AE
:100160000895E0916400F0916500309709F00994DA
:1001700008958CE08ABB83E08BBB88E787BB87E26E
:1001800088BBC59A89B5826089BD09B400FEFDCFE0
:10019000B7D005D0D5DF7894E4DFCED0FDCF83E0B3
:1001A000EEE6F0E0AE2FBF2F982F1D929A95E9F75B
:1001B000EBE6F0E0AE2FBF2F1D928A95E9F7109283
:1001C0006A00109269001092680012BE83B78860BE
:1001D00083BF83B7836083BF89B7826089BF089577
:1001E000CF92DF92EF92FF922091690030916A00E6
:1001F000C62ED72EE12CF12CC20ED31EE11CF11C11
:100200009FEFC916D906E104F10410F02F5F3F4FAC
:10021000620F731FF89490E0E82FF92FEE0FFF1F85
:10022000E259FF4F71836083E82FF92FE559FF4FA3
:1002300021E020837894FF90EF90DF90CF90089595
:10024000E82FF0E0E559FF4F808108951F920F924B
:100250000FB60F9211242F933F934F935F938F9379
:100260009F93AF93BF93EF93FF9380916900909119
:100270006A00019690936A0080936900109268006A
:1002800020E02330D9F0822F90E0A82FB92FA55974
:10029000BF4F3C91313081F44091690050916A0028
:1002A000880F991FE82FF92FE259FF4F8081918124
:1002B0008417950709F41C922F5FE3CF2093680001
:1002C000FF91EF91BF91AF919F918F915F914F916E
:1002D0003F912F910F900FBE0F901F901895109285
:1002E0007800C398089580917800813021F41092AD
:1002F0007800C398089581E080937800C39A0895A8
:10030000EEDF1092740010927B0010927900109230
:1003100075001092760010927A00109277008FB5D7
:1003200080688FBD89B7846089BF089580937A0003
:1003300081E080937700089580917400811124C03A
:1003400090917700913001F51092770080917A00BA
:10035000809376009093740095E090937B0090E2F8
:1003600090937500082E82958025082E8695869597
:1003700080258F5F86958170809379001EBC80EF09
:100380008BBD8FB585608FBD08951F920F920FB6FC
:100390000F9211242F933F934F935F936F937F930B
:1003A0008F939F93AF93BF93EF93FF93E09174006C
:1003B0008E2F90E0E82FF92F3197E031F10508F00A
:1003C00040C0E45FFF4F099481E080937800C39AB6
:1003D00080917B00815080937B00811132C07FDF50
:1003E00082E00FC09091760080917500892309F01A
:1003F0007ADF8091750086958093750080917400F6
:100400008F5F809374001DC06EDFF8CF80917900FC
:10041000811169DF8FE0F5CF66DF80E180937400A2
:1004200086E080937B000DC05ADF80917B00815075
:1004300080937B00811105C08FB58A7F8FBD10929C
:100440007400FF91EF91BF91AF919F918F917F9138
:100450006F915F914F913F912F910F900FBE0F9031
:100460001F9018950024552704C0080E591F880FA7
:10047000991F009729F076956795B8F37105B9F73C
:0A048000802D952F0895F894FFCF0A
:00000001FF
