:100000000BC024C023C022C021C020C01FC01EC0FE
:1000100069C11CC0BCC01AC011241FBECFEDCDBF2A
:1000200010E0A0E6B0E0ECE2F3E003C0C895319642
:100030000D92A236B107D1F720E0A2E6B0E001C0F0
:100040001D92A637B207E1F755D06EC1D9CF282F40
:10005000862F90E066E070E056D18D599F4FE82FD3
:10006000F92F2083089580916400813059F018F0B1
:100070008230A9F00895B39B1DC01092620080E009
:100080002CD115C0B39902C082E012C080916300E8
:1000900090916200891771F0809362001EC1B39B3A
:1000A00009C01092620080E018D11092630081E0D4
:1000B000809364000895E3E6F0E086E0AE2FBF2F62
:1000C0001D928A95E9F783E390E09383828387E228
:1000D00090E0958384830895E0916700F091680033
:1000E00060E00994E0916500F0916600309709F0B6
:1000F000099408958CE08ABB83E78BBB82E487BBBD
:100100008DE388BB89B5826089BD09B400FEFDCF4F
:1001100080E0DCD008D0CFDF8CE690E00FD0789480
:1001200012D0E0DFFDCF109275001092740083B7FB
:10013000846083BF88B1886488B9089590937500FE
:1001400080937400089580916B008823F9F0F894EF
:1001500010926B0080916C00789490916A008913E2
:1001600011C0909169009F5F933018F490936900DB
:10017000089510926900E0917400F0917500309735
:1001800029F0099480936A001092690008951F92E3
:100190000F920FB60F9211242F933F938F939F933B
:1001A00082B790917200891718F42FEF280F01C0C1
:1001B000282F291B20937100809372008091710079
:1001C0009AEC980F9F3068F481E08093700080E48F
:1001D0008093600010926F0010926D0010926E007C
:1001E0004EC098EE980F9F30C0F48091700081301F
:1001F000D9F480916F00811117C0809160009091B7
:100200006E009F77282F2095922390936E008695FD
:100210008093600010926F0032C08850803128F5C2
:1002200090917000913031F080E4809360001092E2
:1002300070003FC080916F008F5F8230F0F01092AD
:100240006F0080916000282F2F7730916E00232B54
:1002500020936E00813029F020916D0092279093B9
:100260006D008695809360000AC01092700080E453
:100270008093600010926F001CC080936F0080918B
:10028000600081111AC01092700080E480936000B9
:1002900080916E00282F217090916D00291309C064
:1002A000882339F086958F7380936C0081E080936A
:1002B0006B0010926D0010926E009F918F913F9194
:1002C0002F910F900FBE0F901F901895880F880FD9
:1002D00088658DB91092730008958FB980E48EB946
:1002E00081E008951F920F920FB60F9211248F9301
:1002F00080E48EB98FB1809373008F910F900FBE01
:100300000F901F9018950024552704C0080E591F00
:10031000880F991F009729F076956795B8F37105B6
:0C032000B9F7802D952F0895F894FFCFB9
:02032C0040008F
:00000001FF
